S01500005363726F6C6C696E67546578742E73726563BD
S113000045C00000D6C200005EC000005CC0000015
S11300105AC0000086C20000BEC2000054C00000E6
S1130020E7C2000050C000004EC000004CC00000F9
S11300304AC0000048C0000046C0000044C00000A0
S113004042C0000040C000003EC000003CC00000B0
S11300503AC0000038C0000036C0000034C00000C0
S113006032C0000030C000002EC000002CC00000D0
S11300702AC0000028C0000026C0000024C00000E0
S113008022C0000020C000001EC0000011241FBEBA
S1130090CFEFD0E1DEBFCDBF13E0A0E0B1E0ECE7ED
S11300A0F6E000E00BBF02C007900D92AA34B1073E
S11300B0D9F726E0AAE4B3E001C01D92AC30B20740
S11300C0E1F7A9D2D9C29CCF84EA80937400E4E713
S11300D0F0E080818823ECF708958093730084E82E
S11300E080937400E4E7F0E080818823ECF70895BE
S11300F0AF92BF92CF92DF92EF92FF920F931F9332
S1130100CF93DF9300D000D000D0CDB7DEB71092EC
S1130110710080E28093700086E0ECE3F3E0DE019E
S1130120119601900D928A95E1F7CE0101967C011A
S11301305E0197E0A90EB11C0F2EF4E7CF2ED12C4F
S1130140F02D04E9C1DFF7011081F2E0EF0EF11C9C
S11301501052812FC2DF81E2C0DFF6010083B4DFD9
S1130160812FBBDF80EAB9DFF6010083ADDF812F89
S1130170B4DF87EEB2DFF6010083A6DF812FADDFA7
S113018081E8ABDFF6010083EA14FB04D9F6269676
S11301900FB6F894DEBF0FBECDBFDF91CF911F9194
S11301A00F91FF90EF90DF90CF90BF90AF900895A4
S11301B00F931F93CF93DF93C0E004E710E0D4E9DB
S11301C083DF80EE8ADF8C2F88DF80E086DFF80112
S11301D0D083CE5FC031A1F7C0E004E710E0D4E9DA
S11301E073DF82EE7ADF8C2F78DF80E076DFF80130
S11301F0D083CE5FC031A1F7C0E004E710E0D4E9BA
S113020063DF88EE6ADF8C2F68DF80E066DFF80149
S1130210D083CE5FC031A1F7DF91CF911F910F91B1
S11302200895CF92DF92EF92FF920F931F93CF9393
S1130230DF93CDB7DEB763970FB6F894DEBF0FBE7A
S1130240CDBF7C016C0100E010E069C0F601619152
S11302506F01CE01019611D189818032C9F14A81A1
S11302605B81141615061CF5FE01349660914A0351
S113027070914B03DB01AA0FBB1FA05BBC4F9A011B
S1130280220F331F2D5F3F4F81E090E08C0F9D1FA5
S1130290280F391F819191918D939D93E217F30754
S11302A0C9F7460F571F50934B0340934A0380915D
S11302B04A0390914B03FC01EE0FFF1FE05BFC4FE0
S11302C011821082019690934B0380934A0325C0B8
S11302D080914A0390914B03FC01EE0FFF1FE05BFA
S11302E0FC4F11821082FC01EE0FFF1FEE5AFC4FEF
S11302F011821082FC01EE0FFF1FEC5AFC4F118299
S11303001082FC01EE0FFF1FEA5AFC4F118210828B
S1130310049690934B0380934A030F5F1F4FF7019A
S113032001900020E9F73197EE19FF090E171F0716
S113033008F48CCF80914A0390914B034796909395
S11303404D0380934C0363960FB6F894DEBF0FBE43
S1130350CDBFDF91CF911F910F91FF90EF90DF9070
S1130360CF9008958F929F92AF92BF92CF92DF92D7
S1130370EF92FF920F931F93CF93DF9300E010E06F
S1130380E12CF12C0F2EFBE29F2EF02DAA24A39436
S11303900F2EF4E7CF2ED12CF02D0F2EF4E98F2E53
S11303A0F02D92DE0130110549F00230110549F0BB
S11303B00115110541F480EE90DE05C082EE8DDE5C
S11303C002C088EE8ADEE701B12C8B2D86DE809197
S11303D04C0390914D039E01281B390B80914A03D5
S11303E090914B03820F931F019612F4892D9A2D3D
S11303F0880F991FFC01E05BFC4F80816EDE219623
S1130400B394B39480E1B812E0CFE8E0EE0EF11CAF
S1130410F60180820F5F1F4FF8E1EF16F10409F037
S1130420C0CF80914C0390914D03019790934D035D
S113043080934C03181619064CF080914A0390914E
S11304404B03479690934D0380934C03DF91CF91D8
S11304501F910F91FF90EF90DF90CF90BF90AF90DE
S11304609F908F90089590930101809300010895C7
S113047080910001909101010895AC0180910201E5
S1130480681761F06C33D1F06E3309F1E5E1F1E006
S113049021E030E09081961323C002C020E030E0D8
S11304A083E1829FF001839FF00D1124EE5FFE4FE4
S11304B0DA0101900D928A95E1F720C083E1E6E12B
S11304C0F3E0DA0101900D928A95E1F717C083E118
S11304D0E9E2F3E0DA0101900D928A95E1F70EC0AA
S11304E02F5F3F4F73962D313105A1F683E1E2E092
S11304F0F1E0DA0101900D928A95E1F7CA010895BD
S1130500181619066CF420E030E0EFECF7E03197B0
S1130510F1F700C000002F5F3F4F82179307A9F740
S113052008951F920F920FB60F9211240BB60F92DB
S11305302F933F934F935F936F937F938F939F93E7
S1130540AF93BF93EF93FF9393DF8430910549F00A
S11305508830910551F0019759F484E090E083DFED
S113056007C088E090E07FDF03C081E090E07BDF9C
S1130570FF91EF91BF91AF919F918F917F916F9177
S11305805F914F913F912F910F900BBE0F900FBE33
S11305900F901F9018951F920F920FB60F9211246F
S11305A08F9382E088BB8F910F900FBE0F901F90A6
S11305B018951F920F920FB60F9211248F939F9349
S11305C080914E0390914F03892B39F481E090E0A0
S11305D090934F0380934E0304C010924F031092E4
S11305E04E039F918F910F900FBE0F901F901895FF
S11305F01F920F920FB60F9211248F9384E088BB41
S11306008F910F900FBE0F901F90189581EC87B9B2
S113061086EC86B90895109261008FEF87BB81BB89
S113062012B88AB782608ABF89B7816189BF78941A
S1130630EDDF5EDDBDDD84B194B198BB90E00D9734
S11306403CF08EE390E0909349038093480306C006
S11306508CE390E0909349038093480382E493E011
S1130660E0DDC4E67FDE04DF9C01C29FC001C39FBE
S10F0670900D112445DFF6CFF894FFCF65
S113067C01002D0500FF00FF00FF00FF00FF00003C
S113068C0000000000200500000000000000000035
S113069C0000000000000000410500BF00480048B5
S11306AC004800BF00000000000000420500FF00ED
S11306BCC800C800C8003700000000000000430553
S11306CC001E002100C000C000C00000000000009B
S11306DC00440500FF00C000C00021001E00000003
S11306EC00000000450500FF00C800C800C800C891
S11306FC00000000000000460500FF004800480010
S113070C480040000000000000004705003F00C006
S113071C00C400C400C7000000000000004805002D
S113072CFF00080008000800FF00000000000000A3
S113073C490500C000C000FF00C000C0000000005C
S113074C0000004A05004100C000C000C0007F004A
S113075C0000000000004B0500FF00080008001416
S113076C00E3000000000000004C0500FF008000C6
S113077C8000800080000000000000004D0500FF98
S113078C00200018002000FF000000000000004EB4
S113079C0500FF0010000C000200FF000000000028
S11307AC00004F05003F00C000C000C0003F000027
S11307BC0000000000500500FF0044004400440009
S11307CC38000000000000005105003F00C000C2CA
S11307DC00C1003F00000000000000520500FF00B3
S11307EC440044004600B90000000000000053051A
S11307FC003100C800C800C8002700000000000039
S113080C0054050040004000FF0040004000000080
S113081C000000005505007F008000800080007FF0
S113082C0000000000000056050070000E0081005E
S113083C0E007000000000000000570500FF0001CE
S113084C0006000100FF0000000000000058050035
S113085CC00033000C003300C00000000000000096
S113086C59050060001800870018006000000000A3
S113087C0000005A0500C300C400C800D000E0000A
S113088C0000000000003C050029001E00FF001EB3
S113089C0029000000000000003E0800C8002500EC
S11308AC1E00BE005F001E002900C40000000200F0
S10D08BC08005741524D5445000056
S9030000FC
